:020000040800F2
:10000000481B00207D02000805460008C13F00088B
:1000100000000000000000000000000000000000E0
:10002000000000000000000000000000695000080F
:100030000000000000000000114C00086D50000896
:100040008F0200088F0200088F0200088F0200084C
:100050008F0200088F0200088F0200088F0200083C
:100060008F0200088F0200088F0200088F0200082C
:100070008F0200088F0200088F0200082D5100082F
:100080008F0200088F0200088F0200088F0200080C
:100090008F0200088F0200088F0200088F020008FC
:1000A0008F0200088F0200088F0200088F020008EC
:1000B0008F0200088F0200088F020008B17A000842
:1000C00000F002F800F0AFF80CA030C8083824188F
:1000D0002D18A246671EAB4654465D46AC4201D180
:1000E00000F0A1F87E460F3E0FCCB6460126334203
:1000F00000D0FB1AA246AB4633431847709000006D
:10010000909000000023002400250026103A01D31F
:1001100078C1FBD8520700D330C100D50B607047BF
:1001200010B56E2902D100F009FB10BD702902D173
:1001300000F04BFC10BD662902D108F01FFE10BD77
:10014000652902D108F01AFE10BD672902D108F016
:1001500015FE10BD612902D108F018FE10BD03681C
:100160001B0A01D380231943692902D100F0B0FA98
:1001700010BD642902D100F0ABFA10BD752902D17F
:1001800000F0A6FA10BD6F2902D100F0C9FB10BD26
:10019000782902D100F006FC10BDE92902D100F057
:1001A00065FB10BDE42902D100F060FB10BDF5290C
:1001B00002D100F05BFB10BDEF2902D100F0BCFBC7
:1001C00010BDF82902D100F0FBFB10BD0368DB096C
:1001D00001D380231943632902D101F0FEF810BD39
:1001E000732902D101F001F910BDE32902D101F018
:1001F0000BF910BDF32902D101F00EF910BD00205A
:1002000010BD1FB501F06EF904000020002108F0B8
:100210009FFD401C60600020002108F083FDE0602D
:100220001FBD10B510BD01F036F91146FFF7E9FF0B
:1002300008F050F801F066FC03B4FFF7F2FF03BCCE
:1002400000F0AEFC70B505460C46164602E00FCC39
:100250000FC5103E102EFAD2082E02D303CC03C5D0
:10026000083E042E07D301CC01C5361F03E02178D8
:100270002970641C6D1C761EF9D270BD074880473A
:1002800007480047FEE7FEE7FEE7FEE7FEE7FEE77A
:1002900004480549054A064B7047000029510008EB
:1002A000C100000848150020481B00204817002006
:1002B00048170020FEB5054610460C46184373D07B
:1002C000AE468C460020AD1A01469C4167D3664677
:1002D000002701243D46B61A9D4102D313463A46F3
:1002E0002124654676462F04360C3E432D0CB61A63
:1002F0009D4104D3150C1B042B4312041034654696
:1003000076462F06360A3E432D0AB61A9D4104D37F
:10031000150E1B022B4312020834654676462F0742
:1003200036093E432D09B61A9D4104D3150F1B0112
:100330002B431201241D65467646AF07B6083E439F
:10034000AD08B61A9D4104D3950F9B002B43920034
:10035000A41C65467646EF0776083E436D08B61A3C
:100360009D411AD392185B41641C16E00018764632
:1003700065464941B71A9D410191009009D36046F5
:10038000B11A98418E468446009801990025401C78
:100390006941DD0752082A435B08641EE6D57246B0
:1003A000634603B0F0BDFFE700200146C046C046EB
:1003B0002A462346F5E700007CB51D4616460C008C
:1003C000009001D00019401E084B7B442A46694624
:1003D0000190304600F0CBF9002C054603D0694669
:1003E000002000F0D7F928467CBD0000D1030000B2
:1003F0000EB5044615460E4612A000F0C1FB20467D
:1004000000F0BEFB15A000F0BBFB304600F0B8FBCF
:1004100014A000F0B5FB6C460020E0720A20A07228
:100420000A3407E00A21284600F04AF83031054630
:10043000641E2170002DF5DC204600F0A1FB00F0C9
:1004400095FB00002A2A2A20617373657274696F14
:100450006E206661696C65643A2000002C20666934
:100460006C6520002C206C696E65200001E004C0E2
:10047000091F0429FBD28B0701D50280801CC90704
:1004800000D00270704700290BD0C30702D0027061
:10049000401C491E022904D3830702D50280801C18
:1004A000891EE3E70022EEE70022DFE700220309CE
:1004B0008B422CD3030A8B4211D300239C464EE07F
:1004C00003460B433CD4002243088B4231D303093B
:1004D0008B421CD3030A8B4201D394463FE0C309ED
:1004E0008B4201D3CB01C01A524183098B4201D305
:1004F0008B01C01A524143098B4201D34B01C01AF0
:10050000524103098B4201D30B01C01A5241C30867
:100510008B4201D3CB00C01A524183088B4201D3D6
:100520008B00C01A524143088B4201D34B00C01AC2
:100530005241411A00D201465241104670475DE0D7
:10054000CA0F00D04942031000D34042534000225A
:100550009C4603098B422DD3030A8B4212D3FC2203
:10056000890112BA030A8B420CD3890192118B4282
:1005700008D3890192118B4204D389013AD0921198
:1005800000E08909C3098B4201D3CB01C01A524153
:1005900083098B4201D38B01C01A524143098B421C
:1005A00001D34B01C01A524103098B4201D30B0105
:1005B000C01A5241C3088B4201D3CB00C01A52412A
:1005C00083088B4201D38B00C01A5241D9D2430811
:1005D0008B4201D34B00C01A5241411A00D201464E
:1005E000634652415B10104601D34042002B00D5B8
:1005F0004942704763465B1000D3404201B500207A
:10060000C046C04602BD70477047704770B504468B
:1006100085690068C10601D5302600E02026C007A4
:1006200007D070BD62683046A1689047206A401CC0
:1006300020626D1EF6D570BD70B5044685690078E0
:10064000C00707D170BD6268A16820209047206A6A
:10065000401C20626D1EF6D570BD09684A0501D5A3
:1006600040B27047C905FCD500B2704709684A0519
:1006700001D5C0B27047C905FCD580B2704770B5CE
:100680000C460546012A05D02878800600D5EA697F
:10069000002302E0012305E05B1C934202D2E05CF0
:1006A0000028F9D1A869E618C01AA861286AC018FC
:1006B00028622846FFF7AAFF04E06A682078A96844
:1006C000641C9047B442F8D32846FFF7B5FF70BDCD
:1006D000F7B5002575291068009914A611D0FFF709
:1006E000BCFF002802DA404211A608E00099096820
:1006F0008A0701D50FA602E0490704D50EA60125F9
:1007000001E0FFF7B3FF009F0024243704E000F06E
:10071000ADFE30313955641C0028F8D12B463246E5
:100720002146009800F07FFAFEBD000000000000A6
:100730002D0000002B00000020000000116802685E
:10074000006A530501D5087009E0D30501D508807A
:1007500005E0130602D5C21705C100E008600120BC
:100760007047000001694A1C02610878704700B5B3
:100770008FB00291002105910549019379440391BD
:1007800011460490684600F02DF90FB000BD00003E
:10079000E5FFFFFF0A681070521C0A6070470CC921
:1007A00008399A4202D2531C0B6010707047000047
:1007B000F7B50446154686B02B487844002703C891
:1007C0003E460090019111E007986A467100415A37
:1007D00002A800F025FE411C07D02178890603D528
:1007E000E269391891420ED83F18761C20788006AD
:1007F00002D5E069B84206DDAE42E5DB079871003C
:10080000405A0028E0D1A069C01BA0612046FFF734
:10081000FDFE154878445A3803C800900020019125
:1008200016E041006A460798415A02A800F0F8FD18
:100830000590401C0AD0002505E0626802A8A16866
:10084000405D90476D1C05988542F6D30498401C86
:10085000B0420490E5DB206AC01920622046FFF711
:10086000EBFE09B0F0BD00001E880000F7B5D21DF8
:100870000025D20815A6D200F52905CA11D0002AF4
:1008800005DA00214042914111A60A4608E000998C
:1008900009688B0701D50FA602E0490701D50EA60E
:1008A00001251146009F0024243704E000F07EF962
:1008B00030323A55641C02460A43F7D12B46324681
:1008C0002146009800F0AFF9FEBD000000000000D6
:1008D0002D0000002B0000002000000070B5044631
:1008E0000021243408E05507D2086D0F30356554D7
:1008F0005D072A43DB08491C15461D43F3D10468F4
:10090000002310A2250708D5A40601D4002904D08D
:10091000C46901230CA2641EC46100F084F970BD97
:1009200010B5044621461068FFF7A0FE00230246DA
:100930002046FFF7D3FF10BDD21DD108C9000CC956
:10094000CCE700000000000030000000F8B50F46C2
:100950000188090502D5224C7C4402E0204C7C44ED
:100960000E3405460021243508E016071209360F1B
:10097000A65D6E541E0732431B09491C16461E43D2
:10098000F3D1224604780023240705D5702F06D022
:10099000002901D00223113200F045F9F8BD0123EE
:1009A0001032F9E770B504460D4621461068FFF78E
:1009B0005DFE0023024629462046FFF7C7FF70BDB3
:1009C000D21DD308DB000CCBC0E730B40368202471
:1009D0001268234303600823C36130BC0023B5E7DA
:1009E00088860000F3B50446002081B020622046CE
:1009F000E1688847002872D0252802D06268A16883
:100A0000ABE0594F00267F442046E1688847202804
:100A1000054608DB312D06D27819203800780028E9
:100A200001D00643F0E7B00701D50420864300203B
:100A3000E0610746A0612A2D0AD0284607F002F996
:100A4000002827D0B8000019303D0090856119E0DA
:100A50000298BA00121902C8916102902046E1681A
:100A60008847012F054617D1E06900281FDA2020AA
:100A700086431CE000980A21806948430099401988
:100A8000303888612046E1688847054607F0DAF883
:100A90000028EFD1012F0AD02E2D08D12046E16881
:100AA00088470546202006437F1C022FC3DBA06930
:100AB000002803DA4042A06101200643F00701D07C
:100AC000102086436C2D0BD0682D09D04C2D3CD0C6
:100AD0006A2D38D0742D38D07A2D36D016E040E00B
:100AE000E1682F4620468847B842054609D16C2F59
:100AF00029D001208002E168064320468847054648
:100B000004E06C2F1DD0FF2001300643002D28D0BB
:100B100028464138192803D80120C0020643203551
:100B2000204626602946029A1646FFF7F9FA002861
:100B300010D001280BD0F61DF008C000083002903C
:100B400055E74020E1E78020D5E70020D3E7361DB8
:100B500002964CE762682846A1689047206A401CCC
:100B600044E7206AFEBD00000286000010B50020A8
:100B700000F076FCFFF755FB012000F011F810BDE6
:100B800010B5044602E0641C00F004F82078002848
:100B9000F9D110BD08B5694608700320ABBE08BD89
:100BA00001491820ABBEFEE7260002000B4670B5D7
:100BB000024689078008084319469D08141AA9416E
:100BC00025090807054308092C194841250A01068B
:100BD0000D43010A2C194141200C0D0428430D0C32
:100BE00000194D41002140194D41C00869070843D3
:100BF000E908840F8D002543840024184D412419F1
:100C00006D41121BAB4107E00925ED432C11521930
:100C100063410024401C61411C460A250026551BE7
:100C2000B441F1D270BDFFB504460D4681B0243009
:100C300000902168880604D51022E0699143216064
:100C400000E00120A84201DD471B00E000270498D6
:100C5000A1697A191018081AA0612078C00602D478
:100C60002046FFF7D3FC002608E003986268A168DD
:100C7000805D9047206A401C761C20620498864262
:100C8000F3DB2078C0060AD52046FFF7BFFC06E05C
:100C90006268A16830209047206A401C2062384674
:100CA0007F1E0028F4DC07E000986268A168405DC0
:100CB0009047206A401C206228466D1E0028F3DC05
:100CC0002046FFF7B9FC2078000602D5022005B0C7
:100CD000F0BD0120FBE700007047FFB50C461E4643
:100CE0008FB003CA089009914F007D0D00D16D1E91
:100CF000002108460020C0460321099A89050840C2
:100D0000002A03DA8200801840080840800D01287C
:100D10000A9002DD0020C0430A90089807430DD0D6
:100D2000EF48F049281848430714189800281DD0A8
:100D30007542291E1DDD0A9842421BE018980128C1
:100D400002D00020302104E00020F24305E02154CD
:100D5000401CB042FBDB30460022189B002121548E
:100D60000F998B600A60486013B0F0BDBD1B6D1C0D
:100D7000DFE70A9A002900DA69420BA800F0FAFBC3
:100D80000BAB07CB03AB07C30899099800F056FCDF
:100D90006B4607C30146D4480918002D00910ADDAF
:100DA000D14903980A9A4942401803A9039068461A
:100DB00000F077FE07E003990A9A081803A9039048
:100DC000684600F036FE6B4607C30004000C03D0F3
:100DD0000020C043410800E01046189A002A03D0C2
:100DE0000022009215461EE0751E05D4FFF7DEFEB8
:100DF000303262556D1EF9D501220843079602D0A4
:100E000000227F1C04E02078302801D100227F1EC0
:100E1000002A069789D01EE0112D07DAFFF7C6FEDB
:100E2000303262556D1C02460A43F5D1084303D0A7
:100E30000098002819D00EE00021681E05E0235C10
:100E4000625C63542254401E491C8142F7DBA81B9C
:100E5000401E07950690079A18990020A0540F98F5
:100E6000079B069A81600CC07EE71126002018902F
:100E70005BE7D21DF0B50D460446D10893B0C9001A
:100E800003C90C900D9106F08BFE02460D98C00F21
:100E900001D02D2007E02068810701D52B2002E03A
:100EA0004007C00F4001032A0F9001D0072A05DB3D
:100EB00003462946204600F019FB0EE12078800603
:100EC00001D5E76900E006272846652D04D066288D
:100ED00014D0672D69D12DE00020112F009001DB87
:100EE000112300E07B1C0CAA03A910A8FFF7F5FE54
:100EF0001199002610987D1C0E9142E001203B467E
:100F00000CAAC0070B900120009003A910A8FFF7BE
:100F1000E4FE119D12981099002600280E9501D12B
:100F2000781C0D18781B02D446427D1C761EE81BE7
:100F300000903AE0012F00DA01270020112F0090E5
:100F400001DD112300E03B460CAA03A910A8FFF71E
:100F5000C4FE11993D46109800260E91217809078C
:100F60000BD40E99A94200DA0D4603A9012D04DD28
:100F70004A19203AD27F302A06D0B84201DA011D40
:100F800004DA012100910FE06D1EEFE7002802DC7A
:100F900086192D1A03E0411CA94200DD0D46801B75
:100FA000401C00900120C0070B902078000705D45A
:100FB0000098A84202DB0020C04300906946002050
:100FC000C8720B98012102AF0337C907884225D0A8
:100FD000022010902B2011900B9800280BDA404231
:100FE0000B902D20119006E00B9800F03FFA303165
:100FF0007F1E0B9039701099481E00291090F3DC69
:101000000B980028F0D111987F1E387020880005B9
:1010100001D5452000E065207F1E387001A8C01B67
:10102000C01D0B900F98002800D001204119009896
:10103000C01709180B980818A169081A401EA0616A
:101040002078C00602D42046FFF7E0FA0F98002867
:1010500005D06268A1689047206A401C2062207811
:10106000C00625D52046FFF7D1FA21E0002E07DB88
:101070000E98B04204DD03A86268805DA16802E0BA
:101080006268A16830209047206A761C401C20626C
:101090000098401E002800900AD100F023FAC06892
:1010A00062680168405CA1689047206A401C206229
:1010B00028466D1E0028D9DC07E062683878A168F0
:1010C0007F1C9047206A401C20620B99481E002913
:1010D0000B90F2DC2046FFF7AFFA032044E6000055
:1010E00001FCFFFF104D0000E1DFFFFFD21DF0B556
:1010F00004460D46D0088DB0C000466807683146EA
:10110000384606F04DFD0246F00F01D02D2307E0D2
:101110002068810701D52B2302E04007C00F43015F
:101120006846002B037001D0012000E00020032A54
:101130000A9001D0072A04DB2946204600F0D6F9A0
:101140002DE12078800601D40D2500E0E5697000CE
:10115000400D0D2D01904BDA300D00210B9008460B
:101160000020C046032189050840002E05DA8200D0
:101170008018C20F1018401008408015012801DDAA
:101180000020C043A9000023182906D39C460A4624
:101190000123183A1B07D34003E001221205CA407D
:1011A00094460C31202902D33A46203900E03246D9
:1011B0008A40002802DD002A06D119E0002817D154
:1011C0000121C9078A4213D3194663467F185E413D
:1011D000002806D10120C007824202D10846874379
:1011E0009E430B98310D814202D00198401C019022
:1011F0002088000502D57149794402E06F4979449D
:1012000019396B460A9830221A540A980A7C401CF5
:101210001A54401C0A900198002801DC302000E09C
:1012200031201872019A0120002A02D0644BD21892
:1012300004E072003A4302D0614A521C0192002D30
:1012400002DC2278120703D56A462E205072022053
:101250000022864694460CE032033601120F6D1EC2
:101260008B5C02AA13546246521C401C9446052A09
:1012700001DA002DF0DC002202AE08E03B0F3F0156
:10128000CB5C521C6D1E3354401C082A01DA002D21
:10129000F4DC23689A0601D511E0401E704504DD98
:1012A0003218203AD27F302AF7D0002807DD3218D2
:1012B000203AD27F2E2A02D11A0700D4401E002DD8
:1012C00003DD3E223254401C6D1E497C315401998D
:1012D000401C002906DA2D21471C31540198404258
:1012E000019003E02B21471C315401987D21C90056
:1012F000884206DBFFF7E4F83030F0557F1C01919F
:1013000001E0642808DB01986421FFF7D9F8303048
:10131000F0557F1C019101E00A2806DB01980A21A3
:10132000FFF7CEF83030F0557F1C01980A21FFF707
:10133000C7F83031F1550A98A1697F1C7A19101845
:10134000081AA0612078C00602D42046FFF75EF993
:10135000216A6E460A980818206204E062683078B4
:10136000A168761C90470A98401E0A90401CF5D14F
:101370002078C00602D52046FFF748F902AE09E002
:101380003078761C3E280DD06268A1689047206AAC
:10139000401C20627F1EF3D22046FFF74DF90DB0AE
:1013A0000320F0BD206A4019206203E06268A16852
:1013B000302090476D1EEDD3F8E70000347E00002A
:1013C00001FCFFFF10B54369002B02D0C046C046A8
:1013D00001E0FFF754F9012010BD127801462431D5
:1013E0000A7000224A700122ECE711680022D24301
:1013F000E8E710B54369002B02D0C046C04601E0C3
:10140000FFF7D6F9012010BD1288014624318284ED
:101410000022C2840122ECE711680022D243E8E7EF
:1014200070B516460C46054600F054F80368FF20D8
:101430000230C05C012807D0FF2C0ED8185D0028B0
:101440000BD001202C7070BDFF333246214608338B
:101450001868C3182846984770BD0020C04370BD67
:1014600010B500F05DFB00F055FB10BD0146800893
:10147000081A02091018020A1018020C1018C008E5
:10148000820012185200891A01E0401C0A390A2908
:10149000FBD270477047754600F05AFBAE46050018
:1014A00069465346C008C000854618B020B5FEF70F
:1014B000EFFE60BC00274908B6460026C0C5C0C57F
:1014C000C0C5C0C5C0C5C0C5C0C5C0C5403D490038
:1014D0008D46704710B500F005F8001D10BD00BF27
:1014E000717800000048704708150020F8B51F46C5
:1014F000044601230068DB02032601461840072A40
:1015000005DB002801D017A506E017A504E0002898
:1015100001D016A500E016A5102081432160A06926
:10152000C01E002FA06101D0401EA0612046FFF721
:101530006DF8002F09D038466268A1689047206A8C
:10154000401C2062C01C206206E0206AFAE7626844
:101550002878A1686D1C9047761EF8D22046FFF7C8
:101560006BF8F8BD4E414E006E616E00494E46006C
:10157000696E6600F7B516468AB02F4878446C4607
:1015800003467C33C06F5A689B680DC42A48784470
:10159000763003AC0DC80DC43720C00108183721C0
:1015A0001B30FEF78DFF05460C46803D1B3C02D5E7
:1015B0006442012000E00020002709900FE0E007CE
:1015C0000BD00C201C497843794432464C394118E1
:1015D000684600F02EFA6B4607C364107F1C002C8F
:1015E000EDD1154F7F442C3F15E0E80711D02001C5
:1015F000C0190EC80691089307920068F04201D105
:1016000098190890324606A903A800F012FA03AB15
:1016100007C36D10641C002DE7D132466946099856
:10162000002803A802D000F03CFA01E000F001FA23
:101630000A9B07C30DB0F0BDC47A0000034640000A
:101640000A4610B5400D0BD00121C9070F24A40292
:1016500000191C0364082143540D2143D20207E002
:1016600000210120F2E7D40F490021435200401E1F
:101670000029F8DADB0FDB07184310BDFFB50D4674
:10168000144685B04868516806F064FA00910190EC
:10169000A868A16806F05EFA02910390A8686168E4
:1016A00006F058FA029A12188242029201D20120E0
:1016B00000E00020019A0B18D2180028019202D0F5
:1016C0008A4202D903E08A4201D2012000E00020D0
:1016D0000099081800906868A16806F03BFA029A21
:1016E00012188242029201D2012000E00020019AE9
:1016F0000B18D2180028019202D08A4202D903E0C6
:101700008A4201D2012000E00020009908180090D0
:101710002868216840004900400849084018F549F8
:10172000471814E001994000C90F08430090019840
:1017300002994000C90F08430190029803994000A4
:10174000C90F08430290039840007F1E0390009841
:101750000028E7DA0898002801D0E74E00E00026CC
:10176000B74228DAF71BF806C00E15D0029B2021DD
:10177000091A039A8B401A430392029A019BC240B2
:101780008B401A430292019A009BC2408B40009901
:101790001A430192C14000917A110BD06B4603208D
:1017A000811A01D5002101E0890059588700401EA7
:1017B000D951F5D5374603980299002800D0012069
:1017C000014308980291002808460CD0002800D058
:1017D00001200199019A490508430121D20AC90251
:1017E000D202019200E001210E9B0122D207012BBF
:1017F00002D0002B03D013E0002807D116E090425E
:1018000004D890420CD1019B0B4209D0019B59187E
:10181000019105D10099491C009101D17F1C0092D2
:10182000002803D0102108460020C04628682168FF
:10183000019B009A4840C10F0598C90739430EC063
:1018400009B0F0BDFFB587B0099A089808995368A8
:10185000926840688968964600220393174694462A
:10186000089A12685300099A5B08126852005208DD
:101870009A1AA24BD4180A9A002A01D0352200E005
:10188000402206920022012315460492DB070593AD
:1018900024E0002D05D175460346039E4D1BB34140
:1018A00009D375466646039B491B049D9841059BD9
:1018B0007519AC465F4163463B4308D0059B049EC7
:1018C000DD0776082E435B080496059301E0521E5F
:1018D000641EC50FED0749184041521C069B9A42F1
:1018E000D7DB002D04D17546039A6B1A824101D2D1
:1018F00003200CE0039A0B466B404240134303D095
:10190000014303D0012002E0022000E000206146F4
:1019100001910021009702910A99002905D06146A2
:1019200040020143744B019102E0800700230290C2
:101930009C423ADA1A1BD006C00E15D0029D202117
:10194000019C091AC5408C402543029C8C4000D064
:1019500001242543019C02953D46C4408D403946F3
:101960002C43C1400194009154111DD06D460221B9
:10197000002202290CD10320001B07E0002804DB11
:101980008600AE59002E00D00122401C0328F5DB52
:10199000081B02D588002A5004E080002858104314
:1019A0008A00A850491EE3D51C460A9800280298D0
:1019B0000CD0002800D001200199019A4905084364
:1019C0000121D20AC902D202019200E00121109B3A
:1019D0000122D207012B02D0002B03D013E00028F4
:1019E00007D116E0904204D890420CD1019B0B42E3
:1019F00009D0019B5918019105D10099491C00910A
:101A000001D1641C0092002803D010210846002058
:101A1000C04608980999019A0068096848400099E9
:101A2000C30F0798DB0723430360826041600BB05C
:101A3000F0BD1FB5002300920A46014601A8FFF73A
:101A40001DFE01AB07CB04B010BDF0B585B001237E
:101A500000920A46014601A8FFF710FE01990F22E5
:101A600002989202CF0F4900039E49088C1AFF0783
:101A70000021002800DB0C46450021486D08844207
:101A800006D30D460E460446102108460020C046E7
:101A90002005E90A084369053843F20A05B01143F5
:101AA000F0BD1FB5002300920A46014601A8FFF7CA
:101AB000C9FE01AB07CBC6E71FB5012300920A465A
:101AC000014601A8FFF7BEFE01AB0F2407CBA4021D
:101AD000C30F4000DB074008001B002900DB00208B
:101AE000490000054908CC0A204349051843D20A99
:101AF0001143A8E702C0FFFF013C0000FF3F0000C8
:101B0000FF07000010B50446C046C0462046FEF759
:101B100093FB10BD10B5002801D0FFF741F810BDB0
:101B200010B5002102A000F017F8012010BD000040
:101B3000534947414252543A2041626E6F726D617F
:101B40006C207465726D696E6174696F6E0000005F
:101B500000487047E814002070B505460C460A207E
:101B600000E06D1CFFF716F8002D06D0287800283D
:101B7000F7D102E0641CFFF70DF8002C02D02078AA
:101B80000028F7D10A20FFF705F870BD024670B5AE
:101B90000A4392072AD11E4DEE0104C808C9541BFE
:101BA0009443344017D0D0B2D9B2401A2106014331
:101BB00010D190B299B2401A210401430AD1100207
:101BC0001902000A090A401A2102014302D1100E2B
:101BD000190E401A70BD9A42DFD010BA19BA884265
:101BE00001D9012070BD0020C04370BD02780B7880
:101BF000401C491C002A09D09A4207D102780B7870
:101C0000401C491C002A01D09A42EFD0D01A70BD66
:101C10000101010170B58C180578401C6B075B0F42
:101C200001D10378401C2A1106D10278401C03E040
:101C30000678401C0E70491C5B1EF9D12B0705D499
:101C40000023521E0DD40B70491CFAE70378401C88
:101C5000CB1A921C03E01D780D70491C5B1C521EB0
:101C6000F9D5A142D8D3002070BD0346042B16D06D
:101C700008DC002B0FD0012B0ED0022B0DD0032B34
:101C800012D10BE0202B0BD0212B0AD0222B09D014
:101C9000232B09D107E008E007E006E005E004E0B7
:101CA00003E002E001E000E000BF00BF0020704759
:101CB0000020704710B500220449054803F02DFCB0
:101CC0000449034803F01FFC002010BDD40B002082
:101CD00010030020D407002070B504460E460948C2
:101CE000856B2146084803F00EFC074803F0DDFB36
:101CF000832080004059054908600120044908708C
:101D0000002070BD900500201003002080000020FE
:101D10007C000020F8B504460D4600260948876B74
:101D200085208000C059002801D00120F8BD2A4636
:101D30002146054803F0F1FB034803F085FC064605
:101D40003046F3E7900500201003002072B600BF74
:101D5000FEE70000014800687047000000F8010835
:101D600070B50948C46A056B466BA419002C0AD0EB
:101D700008220649204602F0EBFA042203491031FA
:101D8000284602F0E5FA70BD80F7FF1F62000020D0
:101D900030B50246134600200BE004121D786C405B
:101DA0002406E40D044D2C5B05026C40A0B25B1CC4
:101DB000491E0029F1D130BD9C8D000870B5044644
:101DC00000F020F906462546681C002802D0054888
:101DD00000782D1800BF00F015F9801BA842FAD337
:101DE00070BD00009C00002078B503460A46002123
:101DF000E4E001268E4014683440002C7ED0157932
:101E0000AD07AD0F012D04D01579AD07AD0F022D33
:101E100018D198684E000325B5400646AE433046BB
:101E20004E00D568B54028439860586801258D401C
:101E30000646AE4330461026556835402D098D4084
:101E4000284358601579AD07AD0F032D0BD0D86826
:101E50004E000325B5400646AE4330464E00956819
:101E6000B5402843D8601579AD07AD0F022D15D1C7
:101E7000CD08AE001D462035A8594D07EE0E0F25A2
:101E8000B5400646AE4330464E07F60E1569B540DE
:101E90002843CD08AD001E462036705118684E000C
:101EA0000325B5400646AE4330461579AD07AD0F64
:101EB0004E00B54028431860032636045568354067
:101EC000002D7AD000BF404DAD69012635433E4E0E
:101ED000B5613546AD69ED07ED0F009500BF00BF58
:101EE0003A4D8E08B600A8598D072E0F0F25B54024
:101EF0000646AE4330460925ED0600E05DE0AB4204
:101F000001D1002514E0324DAB4201D101250FE093
:101F1000304DAB4201D102250AE02F4DAB4201D139
:101F2000032505E02D4DAB4201D1042500E0052538
:101F30008E07360FB5402843244D8E08B600A851B1
:101F4000274DA8680546A54328460126360555684D
:101F50003540002D02D0054625432846204DA86077
:101F6000E8680546A54328460126760555683540AC
:101F7000002D02D0054625432846194DE8606868C3
:101F80000546A54328460126760455683540002DB0
:101F900002D0054625432846114D6860286805464D
:101FA000A54328460126360455683540002D02D049
:101FB0000546254328460A4D2860491C1568CD4032
:101FC000002D00D015E778BD001002400800014048
:101FD0000004004800080048000C004800100048B9
:101FE00000040140024613690B40002B01D0012080
:101FF00000E000207047002A01D0816100E081628A
:1020000070470000014800687047000094000020FD
:1020100002464120805C20282FD100BF4020805CF8
:10202000012801D10220704701234020835400BFC2
:10203000242341208354106800684008400013683E
:1020400018601068006801231B0398431368186028
:10205000106800680843136818601068006801235E
:1020600018431368186020234120835400BF0023C5
:102070004020835400BF0020D5E70220D3E710B5ED
:1020800002460B464120805C20282ED100BF402014
:10209000805C012801D1022010BD0124402084541D
:1020A00000BF242441208454106800684008400088
:1020B00014682060106801680F2424020846A043B9
:1020C000014618020143106801601068006801248D
:1020D00020431468206020244120845400BF002441
:1020E0004020845400BF0020D6E70220D4E700003F
:1020F00010B50446002C01D1012010BD4120005D27
:10210000002805D1002140200155204600F00CFA9E
:1021100024214120015520680068400840002168C2
:1021200008600F21090660688843216808612068FB
:1021300080680121C903884321688860E06801281C
:1021400006D10121C903A06808432168886005E021
:1021500021218902A068084321688860E06802287C
:1021600002D1800221684860206840681449084311
:10217000216848602068C0680121C903884321683C
:10218000C860616920690843A169090208432168A0
:10219000C860216AE0690843216808602068006817
:1021A000012108432168086000206064202141204B
:1021B00001550020206300214220015500209CE7AA
:1021C00000800002FFB585B004460F461E46002081
:1021D00004904120005D20287ED120688069012183
:1021E000C9030840C00B002802D0022009B0F0BD8E
:1021F00000BF4020005D012801D10220F6E7012147
:102200004020015500BF2421412001550020606479
:1022100000BFE068012809D1B805800D01214903FC
:10222000401809034018C91388430AE0B805800D17
:102230000121C90240188900401809034018C91338
:10224000884321684860FFF7DDFE05462068806905
:10225000202108404009039020688069102108402F
:102260000009029022E0701C002813D0FFF7CAFE7C
:10227000401BB04201D8002E0CD120214120015535
:10228000606C0843606400BF00214020015500BF1E
:102290000120ABE7206880692021084040090390B5
:1022A00020688069102108400009029003980028E6
:1022B00002D102980028D6D02068806910210840F9
:1022C0000009002819D1334600222021204600951C
:1022D00001F09EFF002800E04EE001D0012085E7DC
:1022E00020202168C86120214120015500BF002124
:1022F0004020015500BF002078E73346002220210E
:102300002046009501F084FF002801D001206DE7F0
:1023100010202168C86120202168C86104990798AD
:10232000814214D120684068012189030843216853
:1023300048603346002220212046009501F068FFC6
:10234000002801D0012051E720202168C8610498AD
:10235000401C049004990798814200D259E720213B
:1023600041200155606C0843606400BF002140209B
:10237000015500BF012039E7022037E7FFB583B0E0
:1023800004460C9F0E9E4120005D20287ED1002F28
:1023900002D00D98002805D1012040026064012080
:1023A00007B0F0BD00BF4020005D012801D1022030
:1023B000F6E701214020015500BFFFF723FE054647
:1023C00019230122D1032046009501F021FF0028A6
:1023D00001D00120E4E72221412001554021422083
:1023E00001550020606467620D986085002060637D
:1023F00000960195204604A90EC901F0ABFE002805
:1024000006D000BF00214020015500BF0120C7E7D2
:10241000608DFF280CD9FF20208541480090208D39
:10242000C2B201231B062046049901F0D3FE0BE043
:10243000608D20853A480090208DC2B201235B0652
:102440002046049901F0C6FE00BF33460022042155
:102450002046009501F0DCFE002801D001209FE716
:102460002068406A616A0870606A401C6062208D62
:10247000401E2085608D401E6085608D00282BD019
:10248000208D002828D13346002200E045E080213D
:102490002046009501F0BCFE002801D001207FE716
:1024A000608DFF280CD9FF20208500200090208D12
:1024B000C2B201231B062046049901F08BFE0BE0FB
:1024C000608D208500200090208DC2B201235B0624
:1024D0002046049901F07EFE608D0028B5D12A4681
:1024E0003146204601F0CAFE002801D0012057E7FE
:1024F00020202168C861206840680A490840216896
:10250000486020214120015500214220015500BF93
:102510004020015500BF002042E7022040E70000B4
:102520000024008000E800FE10B586B004461421A7
:1025300001A8FDF7B9FF1A49206888422DD100BFD4
:102540001848406901218904084316494861084632
:102550004069012189040840009000BF00BFC020ED
:10256000019012200290002003900320049001208B
:10257000059001A90C48FFF737FC00BF0948C06966
:102580000121490508430749C8610846C06901217E
:1025900049050840009000BF00BF06B010BD000014
:1025A0000054004000100240000400480348006846
:1025B00003490978401801490860704794000020D9
:1025C0009C00002010B5064800681021084304490B
:1025D0000860032000F006F800F02EF8002010BD7F
:1025E0000020024070B50446104801787D20C000EC
:1025F000FDF75CFF064631460D480068FDF756FFC3
:10260000054601F0C1FC002801D0012070BD042C5A
:1026100007D200222146501E00F03CF80548046015
:1026200001E00120F2E70020F0E700009C0000201C
:10263000A00000209800002008B500BF0D48806968
:10264000012108430B49886108468069C007C00F13
:10265000009000BF00BF00BF0846C06909040843DE
:102660000449C8610846C06909040840009000BFD9
:1026700000BF08BD001002400146002905DBCB0663
:10268000DB0E01229A40024B1A6000BF7047000027
:1026900000E100E070B504460D4616462946204686
:1026A00005F094FA70BD01460A6801200523DB019C
:1026B000CB189866002017235B01CB1818705420A4
:1026C000805A01231843542398525420805A0223DD
:1026D00018435423985200207047704770B5054640
:1026E0000C4680202040802806D16007400F282615
:1026F0007043AE19811905E0282060432E46FF364D
:1027000069368119002A03D100200873CB8004E0C8
:10271000012008730B81180C4881002070BD70B532
:1027200004460D462821694323462833C9184A69BF
:102730000521C9016118086F294603F0E8FA70BD48
:1027400070B504460D46282169432346FF3369339B
:10275000C9184A690521C9016118086F294603F0A3
:1027600071FB70BD70B504460E4680203040802855
:1027700008D17007400F28214843611845180120EF
:10278000687009E07007400F282148432146FF3157
:1027900069314518002068707007400F287000BF2D
:1027A000152040012018007A012801D1022070BDB7
:1027B0000120152149016118087200BF29462068CF
:1027C00004F07AFA00BF002015214901611808724F
:1027D00000BF00BFEBE770B504460E463007000FA0
:1027E0006168884201D9012070BD80203040802876
:1027F00008D17007400F282148436118451801206F
:10280000687009E07007400F282148432146FF31D6
:1028100069314518002068700020A8707007400FCB
:10282000287000BF152040012018007A012801D12E
:102830000220D9E70120152149016118087200BF63
:102840002946206804F08EFB00BF002015214901B5
:102850006118087200BF00BFC6E70000F8B5054662
:102860000C46174601208003384000284ED02868C7
:102870004030008A2178C9004018801C0122920251
:1028800029688918405A8605B60DA069B04203D35D
:10289000A069801BA06101E00020A061A069002860
:1028A00013D100BF227892002968895A3F4A11400B
:1028B0000846012149034840890001438022114311
:1028C00023789B002A68D15200BF4020384000285E
:1028D00013D000BF00BF227892002968895A344A79
:1028E000114008460121C9030143C0221143237846
:1028F0009B002A68D15200BF00BF002E54D022890D
:1029000061693346286805F0DFF84DE028684030FB
:10291000008A2178C9004018801D0122920229688E
:102920008918405A8605B60DA069B04203D3A06944
:10293000801BA06101E00020A061A069002813D1E4
:1029400000BF227892002968895A184A1140084627
:102950000121490348408900014380221143237823
:102960009B002A68D15200BF40203840002813D174
:1029700000BF00BF227892002968895A0C4A114092
:1029800008460121C9030143C022114323789B005B
:102990002A68D15200BF00BF002E05D0628961694C
:1029A0003346286805F090F83046F8BD8FBF000028
:1029B0008F8F0000F7B584B005460C46402106987D
:1029C000084000286FD028684030008A2178C9006C
:1029D0004018801C0122920229688918405A8705F4
:1029E000BF0DA069B84203D9A069C01BA06101E076
:1029F0000020A061A06900287ED100BF6078002877
:102A00001BD100BF29680391296840310A8A0399C4
:102A1000511803912178C900891C01239B02039A54
:102A2000D218881800BF01888905890D01800188A6
:102A30005A011143018000BF12E0607801280FD1D4
:102A400000BF28682A684032128A10182278D20003
:102A5000921C01239B02C318D11800220A8000BFD8
:102A600000BF00BF28680390607800281CD100BF19
:102A700029680191296840310A8A01995118019108
:102A80002178C900891D01239B02019AD218881858
:102A900000BF01888905890D018001885A01114311
:102AA000018000BF15E0D8E06078012811D12868C6
:102AB0004030018A0398081803902078C000801DD8
:102AC000012292020399891840180290002102986D
:102AD000018000BF21782846FFF721FE01218903EC
:102AE00006980840002815D000BF00BF2278920049
:102AF0002968895AFC4A00E00DE01140084601218E
:102B0000C90301438122D201114323789B002A6823
:102B1000D15200BFF2E10121890306980840002844
:102B200014D000BF00BF227892002968895AEE4A6B
:102B3000114008460121C90301438122D2011143FA
:102B400023789B002A68D15200BF00BF2420005D7B
:102B50000128DFD16069C0196061E069C019E061D6
:102B60002169206A884204D32669206A801B20627A
:102B70000DE0206A002804D13E46002124200155A2
:102B800005E0002124200155266A0020206200BFB4
:102B90006078002846D100BF296803912968403138
:102BA0000A8A0399511803912178C900891C0123CD
:102BB0009B02039AD218881800BF01888905890DE5
:102BC00001803E2E13D900BF71090291F106C90E92
:102BD000002902D10299491E02910188029A9202AB
:102BE0000123DB031A4392B21143018018E0002E47
:102BF00005D101880122D2031143018010E000BFFA
:102C000071080291F107C90F002902D00299491CED
:102C100002910188029A9206120C1143018000BFB2
:102C200000BF11E0607801280ED100BF28682A6833
:102C30004032128A10182278D200921C01239B0283
:102C4000C318D1180E8000BF00BFB3B222896169DA
:102C50002868039004F060FF50E128684030008A43
:102C60002178C9004018801D012292022968891824
:102C7000405A8705BF0DA069B84203D3A069C01BA5
:102C8000A06101E00020A061A06900287ED100BF02
:102C9000607800281BD100BF296803912968403162
:102CA0000A8A0399511803912178C900891C0123CC
:102CB0009B02039AD218881800BF01888905890DE4
:102CC000018001885A011143018000BF12E0607841
:102CD00001280FD100BF28682A684032128A1018D4
:102CE0002278D200921C01239B02C318D118002223
:102CF0000A8000BF00BF00BF2868039060780028EA
:102D00001BD100BF29680191296840310A8A0199C5
:102D1000511801912178C900891D01239B02019A54
:102D2000D218881800BF01888905890D01800188A3
:102D30005A011143018000BF14E06078012811D1CD
:102D400028684030018A0398081803902078C00052
:102D5000801D0122920203998918401802900021D7
:102D60000298018000BF21782846FFF7D8FC012196
:102D7000890306980840002815D100BF00BF2278BB
:102D800092002968895A584A114000E00CE0084630
:102D90000121C90301438122D201114323789B0001
:102DA0002A68D15200BFA9E0012189030698084092
:102DB000002814D100BF00BF227892002968895AE8
:102DC000494A114008460121C90301438122D20129
:102DD000114323789B002A68D15200BF00BF2420F2
:102DE000005D01287ED16069C0196061E069C01989
:102DF000E0612169206A884204D32669206A801B29
:102E000020620DE0206A002804D13E4600212420E3
:102E1000015505E0266A002020620021242001558A
:102E200000BF286803906078002846D100BF296859
:102E30000191296840310A8A01995118019121783C
:102E4000C900891D01239B02019AD218881800BF6E
:102E500001888905890D01803E2E13D900BF7109B3
:102E60000091F106C90E002902D10099491E009176
:102E70000188009A92020123DB031A4392B21143A4
:102E8000018018E0002E05D101880122D2031143F0
:102E9000018010E000BF71080091F107C90F0029FF
:102EA00002D00099491C00910188009A9206120CE8
:102EB0001143018000BF00BF13E06078012810D1EA
:102EC00028684030018A0398081803902078C000D1
:102ED000801D0122920203998918401802900298DD
:102EE000068003E00AE000008F8F000000BFB3B24D
:102EF000628961692868039004F00EFE00BF2278A1
:102F000092002968895A094A114008461021484010
:102F100020214840890201438022114323789B00ED
:102F20002A68D15200BF002007B0F0BDBF8F00005B
:102F300002464807400F282358431346FF3369339E
:102F4000C018C0697047FFB581B005460E461F46E0
:102F50000020009080203040802808D17007400F6A
:102F600028214843691844180120607009E070075F
:102F7000400F282148432946FF3169314418002079
:102F800060707007400F207003982061E770022F77
:102F900001D10020207100BF152040012818007ABF
:102FA000012802D1022005B0F0BD01201521490100
:102FB0006918087200BF2146286803F02FFC00BF83
:102FC0000020152149016918087200BF0098EAE73E
:102FD000FFB581B005460E4617467007400F282101
:102FE00048432946FF316931441867610498A0615C
:102FF0000020E06160707007400F20702146286853
:1030000004F04AF8002005B0F0BD70B504460E4645
:103010007007400F6168884201D9012070BD80208F
:103020003040802808D17007400F2821484361189C
:1030300045180120687007E0282070432146FF31C1
:1030400069314518002068700120A8707007400F92
:10305000287000BF152040012018007A012801D1F6
:103060000220DBE70120152149016118087200BF29
:103070002946206803F0E2FF00BF00201521490126
:103080006118087200BF00BFC8E7FFB581B00546F0
:103090000E461F467007400F282148436918441800
:1030A00003986061A7610121242001552762002057
:1030B000E061012060707007400F20702146286891
:1030C00003F0EAFF002005B0F0BD000070B5044633
:1030D000206804F0F5FC05460120C00328400121CA
:1030E000C903884203D1204601F08EFA70BD012049
:1030F000800228400121890288420FD12068403097
:10310000808872490840216840318880204600F05C
:103110008BF90021204600F0BCF9E7E7012080038D
:10312000284001218903884208D1206840308088E6
:1031300067490840216840318880D7E70120400373
:10314000284001214903884208D120684030808806
:1031500060490840216840318880C7E701200003AA
:1031600028400121090388422BD120684030008883
:103170005949084021684031088020684030008863
:103180005549091F08402168403108801720400137
:1031900020180078012808D1002017214901611862
:1031A000087000212046FFF798FA204600F052F9F7
:1031B0002068403080884949084021684031888033
:1031C00094E70120C00228400121C90288421BD196
:1031D0002068403000880821084321684031088079
:1031E0002068403080883E4908402168403188800E
:1031F000206840300088042108432168403108805D
:10320000204600F093F971E780202840802836D1CD
:1032100020684030808830497C390840216840313E
:1032200088801720400120180078002823D12068CA
:10323000403000880421084321684031088020681C
:10324000403000880821084321684031088001206F
:10325000172149016118087020684030808AF021E8
:10326000084080080521C9016118486601212046EF
:10327000FFF733FA02E0204600F058F936E7012064
:10328000400228400121490288420BD12068403089
:10329000808814490840216840318880204600F029
:1032A000EFF823E7FF2001302840FF210131884259
:1032B00009D12068403080880749FC3908402168DE
:1032C0004031888012E700BF10E70000FFFB0000DC
:1032D000FFBF0000FFDF0000FBFF0000FFEF00006A
:1032E000FFF70000FFFD000030B585B00446002C5C
:1032F00002D1012005B030BD152040012018407AD0
:10330000002806D11521490161180872204600F0F5
:1033100067F803201521490161184872206803F0FD
:1033200015FE00251CE00122282068432146283193
:1033300040184270282068430D540022282068431A
:103340004018C27028206843401802612820684352
:10335000401842612820684340188261681CC5B249
:103360006068A842DFD800251CE0002228206843BE
:103370002146FF31693140184270282068430D54BE
:10338000282068434018C270282068434018026112
:103390002820684340184261282068434018826111
:1033A000681CC5B26068A842DFD8142221461031DB
:1033B0006846FCF747FF20460FC803F0B9FD00211F
:1033C0002420015501201521490161184872E06946
:1033D000012802D12046FFF766F900208AE70000A5
:1033E00038B504460E492068884217D100BF0D4801
:1033F000C0690121C90508430A49C8610846C06976
:103400000121C9050840009000BF00BF00221146FD
:103410001F20FFF73FF91F20FFF72EF938BD0000EE
:10342000005C00400010024070B504460125A06811
:10343000022801D0FEF78AFC0521C9016118086F36
:10344000294602F073FE0521C9016118086F02F0D8
:103450000BFE70BD10B50446A069002807D00748D0
:103460000069062188430549086101F013FE052122
:10347000C9016118086F02F030FE10BD00ED00E0D8
:1034800010B504460521C9016118086F02F036FE27
:1034900010BD70B504460D4600BF15204001201830
:1034A000007A012801D1022070BD012015214901B7
:1034B0006118087200BF242005552946206804F0D1
:1034C00023FB00BF0020152149016118087200BFCD
:1034D00000BFE9E710B504460521C9016118086F6E
:1034E0002B210901611802F038FE10BD10B5044609
:1034F00000BF152040012018007A012801D10220C8
:1035000010BD0120152149016118087200BF206813
:1035100004F0C2FA206803F001FD00BF002015216D
:1035200049016118087200BF00BFE9E710B5044601
:103530000521C9016118086F02F079FEA069002811
:1035400005D003480069062108430149086110BD00
:1035500000ED00E0F8B5044600260025012109042D
:103560002068084088427AD100276048C069090372
:10357000084000280DD100BF5C48C06908435B4982
:10358000C8610846C06909040840009000BF00BF38
:10359000012757480068FF2101310840002816D153
:1035A00053480068084352490860FEF72BFD064661
:1035B00006E0FEF727FD801B642801D90320F8BD33
:1035C0004B480068FF21013108400028F1D04748EE
:1035D000006A0321090208400546002D2DD06068CD
:1035E0000840A84229D04148006A884305463F4820
:1035F000006A0121090408433C4908620846006A40
:103600000121090488433949086208460562E80730
:10361000C00F002811D0FEF7F5FC064607E0FEF7C4
:10362000F1FC801B3349884201D90320C7E72F48AA
:10363000006A022108400028F1D02C48006A0321CA
:10364000090288436168084328490862012F05D1AF
:103650000846C069090488432449C86100BF20782E
:10366000C007C00F002807D02048006B80088000EA
:10367000A16808431D490863022120680840022808
:1036800008D11A48006B032109048843E168084304
:1036900016490863202120680840202807D11348D4
:1036A000006B1021884321690843104908630121F8
:1036B000490420680840884207D10C48006B8021EB
:1036C0008843A169084309490863012189022068E8
:1036D0000840884207D10548006B40218843616952
:1036E000084302490863002069E700000010024017
:1036F000007000408813000070B504460D46002C91
:1037000001D1012070BD58480068C007C00FA84211
:103710000ED25548006840084000284352490860CE
:1037200008460068C007C00FA84201D00120E9E7A1
:10373000022120680840022814D104212068084092
:10374000042807D1494840680721090288434018E6
:103750004649486045484068F0218843A1680843CD
:10376000424948602078C007C00F002847D06068F1
:10377000012808D13D48006801214904084000287B
:1037800021D10120BEE76068022808D137480068CF
:10379000012149060840002815D10120B2E76068E0
:1037A000032808D13148406B012149040840002812
:1037B00009D10120A6E72D48006802210840002811
:1037C00001D101209EE72948406880088000616897
:1037D000084326494860FEF715FC064607E0FEF759
:1037E00011FC801B2249884201D903208AE71F4827
:1037F00040680C210840616889008842EFD11A486E
:103800000068C007C00FA8420ED9174800684008DA
:10381000400028431449086008460068C007C00FEC
:10382000A84201D001206DE7042120680840042847
:1038300008D10E484068072109028843E16808431F
:103840000A49486000F01AF808494968F022114016
:103850000909084A515CC840074908600320FEF77F
:10386000C1FE00204EE70000002002400010024090
:1038700088130000C48F0008A0000020F8B50025C0
:10388000002400270026002000902B4845680C20CB
:103890002840002849D0042804D0082805D00C2846
:1038A00042D13EE02548009042E00F2080042840AD
:1038B000800C23490E5C2048C06A0007000F214994
:1038C0000C5C0320C00328400121090488420AD16E
:1038D0002246002319481946FCF7ECFC314604F057
:1038E00039F907461BE00320C00328400321C90320
:1038F00088420AD12246002313481946FCF7DAFC15
:10390000314604F027F9074609E0224600230B4818
:103910001946FCF7CFFC314604F01CF90746009726
:1039200006E00948009003E000BF0448009000BF93
:1039300000BF0098F8BD00000010024000127A009D
:10394000A48F0008B48F0008006CDC02FEB50446AA
:10395000002C01D10120FEBD2078C007C00F002837
:1039600072D0FC4840680C21084004280CD0F9486B
:1039700040680840082813D1F648406849030840C9
:103980000121090488420BD1F24800680121490451
:10399000084000286BD06068002868D10120DAE771
:1039A00000BF6068012807D1EA48006801210904C6
:1039B0000843E849086031E0606800280ED1E54816
:1039C0000068012109048843E2490860084600684C
:1039D000012189048843DF4908601FE060680528E9
:1039E0000ED1DC480068012189040843D9490860E8
:1039F00008460068012109040843D64908600DE023
:103A0000D4480068012109048843D2490860084667
:103A10000068012189048843CE49086000BF6068BE
:103A2000002812D0FEF7EEFA054606E0FEF7EAFAA5
:103A3000401B642801D903208DE7C6480068012196
:103A4000490408400028F1D011E0FEF7DBFA0546F2
:103A500006E0FEF7D7FA401B642801D903207AE775
:103A6000BC4800680121490408400028F1D1022126
:103A700020680840022862D1B64840680C210840FE
:103A800000280CD0B3484068084008281CD1B14831
:103A90004068490308400121C903884214D1AD4858
:103AA000006802210840002804D0E068012801D005
:103AB000012050E7A7480068F82188432169C90020
:103AC0000843A44908603AE0E068002820D0A148F3
:103AD0000068012108439F490860FEF793FA0546F4
:103AE00006E0FEF78FFA401B022801D9032032E7D7
:103AF00098480068022108400028F2D095480068E4
:103B0000F82188432169C90008439249086016E0FA
:103B100090480068400840008E490860FEF772FA3D
:103B2000054606E0FEF76EFA401B022801D9032085
:103B300011E788480068022108400028F2D10821D6
:103B400020680840082831D1E069002817D0814852
:103B5000406A012108437F494862FEF753FA05464F
:103B600006E0FEF74FFA401B022801D90320F2E6D7
:103B70007848406A022108400028F2D016E07548D3
:103B8000406A4008400073494862FEF73BFA054628
:103B900006E0FEF737FA401B022801D90320DAE6D7
:103BA0006C48406A022108400028F2D104212068B4
:103BB0000840042872D1002001906648C069890637
:103BC000084000280ED100BF6248C069084361491F
:103BD000C8610846C06909040840009000BF00BFE2
:103BE000012001905C480068FF2101310840002855
:103BF00016D159480068084357490860FEF702FA91
:103C0000054606E0FEF7FEF9401B642801D90320B3
:103C1000A1E651480068FF21013108400028F1D099
:103C200000BFA068012806D14A48006A0121084364
:103C3000484908622AE0A06800280BD14548006A7C
:103C40004108490043480162006A04218843414910
:103C500008621BE0A06805280CD13E48006A0421D8
:103C600008433C4908620846006A01210843394973
:103C700008620BE03748006A400840003549086296
:103C80000846006A042188433249086200BFA068E0
:103C9000002813D0FEF7B6F9054608E02BE0FEF742
:103CA000B1F9401B2D49884201D9032053E6294828
:103CB000006A022108400028F1D011E0FEF7A2F9C5
:103CC000054607E0FEF79EF9411B2448814201D9D1
:103CD000032040E61F48006A022108400028F1D175
:103CE0000198012806D11B48C069012109078843B2
:103CF0001849C86100BF10212068084010285FD112
:103D0000606901282CD11348406B042108431149F4
:103D100048630846406B012108430E494863FEF79B
:103D200071F9054606E0FEF76DF9401B022801D93E
:103D3000032010E60748406B022108400028F2D01B
:103D40000448406BF8218843A169C9000843014930
:103D5000486335E000100240007000408813000006
:103D60006069401D00280FD18648406B04218843BC
:103D7000844948630846406BF8218843A169C9001B
:103D80000843804948631BE07E48406B0421084398
:103D90007C4948630846406B400840004863FEF792
:103DA00031F9054606E0FEF72DF9401B022801D93E
:103DB0000320D0E57348406B022108400028F2D16F
:103DC000202120680840202852D16E4840680C21EC
:103DD00008400C280AD06B4840680840082811D1D8
:103DE000684840684903084088420BD16548406BE9
:103DF00001214904084000283AD0206A012837D020
:103E00000120A8E5206A002819D05E48406B0121F6
:103E1000090408435B494863FEF7F4F8054606E0E9
:103E2000FEF7F0F8401B022801D9032093E555481E
:103E3000406B0121490408400028F1D018E05148A6
:103E4000406B0121090488434E494863FEF7DAF8C4
:103E5000054606E0FEF7D6F8401B022801D90320EC
:103E600079E54848406B0121490408400028F1D118
:103E7000606A00284FD0434840680C210840082859
:103E800064D0606A022847D13E48006801210906D3
:103E900088433C490860FEF7B5F8054606E0FEF7A2
:103EA000B1F8401B022801D9032054E535480068C9
:103EB0000121490608400028F1D100BF3148C06AFD
:103EC00000090001216B08432E49C862A16AE06A1B
:103ED00008432C4949687B22D2039143084329496E
:103EE000486000BF084600680121090608432549CB
:103EF0000860FEF787F8054606E0FEF783F8401BEA
:103F0000022801D9032026E51E4800680121490640
:103F100008400028F1D033E01A4800680121090662
:103F2000884318490860FEF76DF8054606E0FEF77D
:103F300069F8401B022801D903200CE511480068EC
:103F40000121490608400028F1D119E0606A0128E2
:103F500000D100E50B484668C76A0320C003304023
:103F6000A16A88420AD13907090F206B814205D125
:103F70000F2080043040E16A884201D00120EAE449
:103F80000020E8E40010024070B504462546681E93
:103F90000949884201D901200CE0681E074948619F
:103FA0000321081F03F012FE002004498861072046
:103FB0000861002070BD0000FFFFFF0000E000E08E
:103FC00000BFFEE701688969022211404908002903
:103FD00002D000210268916201688969C907C90F8E
:103FE000012251405140002904D1016889691143DF
:103FF0000268916170470000F7B584B004460E4630
:104000000020039020688769002506980290102000
:104010003840102854D12168C8613DE0701C002848
:104020003AD0FDF7EFFF0299401AB04201D8002EB6
:1040300032D1206840680121890308400190422064
:10404000005D00902068806949000840C00B00288E
:104050000ED04910019888420AD00098202807D035
:1040600020684068084321684860FDF7CBFF029054
:104070000AE0FDF7C7FF0299401A192804D9202049
:1040800005430120039006E0206880692021084054
:1040900040090028EDD000BF206880692021084039
:1040A0004009002802D103980028B7D003980028BF
:1040B00002D120202168C86104200543012003901B
:1040C00020688769FF2001303840FF210131884294
:1040D00006D10120054300022168C8610120039038
:1040E00001208002384001218902884206D108203F
:1040F0000543C0012168C8610120039001204002EE
:10410000384001214902884206D1022005430002BD
:104110002168C861012003900398002815D020462B
:10412000FFF750FF2068406809490840216848604F
:10413000606C284360642021412001550021422009
:10414000015500BF4020015500BF039807B0F0BDE6
:1041500000E800FEFFB581B0044615461E460A9FE2
:104160001B48F2B2002300902046029900F032F87A
:10417000394620460B9A00F0B4F8002802D00120FE
:1041800005B0F0BD012E03D1E8B22168886211E0CC
:10419000FF2000022840001221688862394620462C
:1041A0000B9A00F09EF8002801D00120E8E7E8B261
:1041B000216888620B983B460022402100902046EF
:1041C00000F026F8002801D00120D9E70020D7E729
:1041D00000200080F8B5069C8D05AD0D1604FF2764
:1041E0003F043E4035431D4325436D006D08009557
:1041F00005686E68650D0127BF023D40034F3D43D2
:10420000AE43009D2E4305686E60F8BDFF63FF035B
:10421000F8B504460D4617461E4623E0701C0028DC
:1042200020D0FDF7EFFE0699401AB04201D8002ECB
:1042300018D1206880692840A84201D1012000E0FF
:104240000020B8420ED1606C2021084360644120F8
:10425000015500214220015500BF4020015500BFFB
:104260000120F8BD206880692840A84201D10120C2
:1042700000E00020B842D1D00020F2E770B504463B
:104280000D46164624E0324629462046FFF7B4FE86
:10429000002801D0012070BDFDF7B4FE801BA842AC
:1042A00001D8002D14D120688069202108404009E0
:1042B00000280DD1606C0843606441200155002145
:1042C0004220015500BF4020015500BF0120E2E718
:1042D000206880692021084040090028D3D00020B0
:1042E000D9E770B504460D46164628E03246294601
:1042F0002046FFF781FE002801D0012070BD681C18
:1043000000281CD0FDF77EFE801BA84201D8002D9E
:1043100015D12068806902210840400800280ED18C
:10432000606C202108436064412001550021422037
:10433000015500BF4020015500BF0120DEE7206885
:1043400080690221084040080028CFD00020D5E72E
:1043500030B50B46002100BF12E0040F0A2C04D236
:10436000040F30344D005C5503E0040F37344D002A
:104370005C55000100254C00641C1D554C1CE1B22D
:104380009142EADB30BDF8B50546012D17DA00266B
:10439000FF27002409E0204600F014F8002802D08E
:1043A000701CC6B22746601CC4B2012CF3DB012E80
:1043B00003D1AF4201D10120F8BD0020FCE700206D
:1043C000FAE7000010B50146C8000B4B1858006909
:1043D000CB00094C1B199B881840002801D10022F2
:1043E00000E00122C800044BC0188079904201D13E
:1043F000012010BD0020FCE79C8F000800B587B0AD
:10440000142102A8FCF750F800BF4D484069012173
:10441000890508434A4948610846406901218905E0
:104420000840019000BF00BF00BF454840694911E6
:10443000084343494861084640690121490408404E
:10444000019000BF00BF00BF3D48406949000843DC
:104450003B494861084640690121890408400190B0
:1044600000BF00BF0022E7210920C006FDF7C3FD01
:104470000122292189023348FDF7BDFD002232497E
:104480003048FDF7B8FDE72002900120039000209E
:104490000490059002A90920C006FDF7A5FC18208C
:1044A000029000200390049002A90920C006FDF7A5
:1044B0009BFC0320029000200390049002A9214855
:1044C000FDF792FC21480290212000040390012076
:1044D000049002A91B48FDF787FC2120800202906E
:1044E00011200390012004900020059002A9154896
:1044F000FDF77AFC164802900120039000200490FA
:10450000059002A90F48FDF76FFC012040030290BF
:104510000120039004900320059002A90948FDF7AB
:1045200063FC01208003029011200390012004907D
:104530000320059002A90348FDF756FC07B000BD13
:104540000010024000040048084800000410000069
:104550000808000010B51348134908601348486064
:104560000021114881600121C16000210161416188
:104570008161C1610162FDF7BBFD002801D0FDF73B
:10458000E5FB00210848FDF743FD002801D0FDF7B9
:10459000DDFB00210448FDF772FD002801D0FDF786
:1045A000D5FB10BD005400406C0200200E09002015
:1045B00010B500220F49104801F05FFB002801D020
:1045C000FDF7C4FB0D490C4801F06DFE002801D039
:1045D000FDF7BCFB0A49084800F08BFF002801D01A
:1045E000FDF7B4FB044801F045FF002801D0FDF7BA
:1045F000ADFB10BD2C00002010030020B4000020F3
:104600008400002000BFFEE7F0B587B005469AE2BF
:104610002868403080880590059807073F0F002FD5
:104620007ED1102105980840002836D100BF2968A6
:104630000988FB4A114008460121C90301432A6841
:10464000118000BF2C46283428684030008A217829
:10465000C9004018801C0122920229688918405A1A
:104660008005800DE061E1696069401860610021AA
:104670002846FEF754F82420405D0028C7D0A069E2
:104680000028C4D12420405D80210843296840319E
:10469000888100212420415555E22C46FF3469349D
:1046A000286806880120C0023040002828D02868E9
:1046B0004030008A2178C9004018801D01229202F2
:1046C00029688918405A8005800DE061A08B83B26B
:1046D000E288286803902B2000012918039803F032
:1046E000F3F900BF29680988CE4A114008468021A5
:1046F00001432A68118000BF2846FEF7EBFE22E244
:104700000120C00330400028C6D000BF29680988B6
:10471000C44A11400846802101432A68118000E004
:104720008FE000BF28684030008A2178C900401817
:10473000801D0122920229688918405A8005800D47
:10474000E061E069002812D0606900280FD0A08BDA
:1047500083B2E28861692868039003F0B5F9E169E2
:1047600060694018606100212846FDF7E9FF28686C
:1047700006880120C002304000288DD103200003AC
:10478000304003210903884286D000BF2968039185
:10479000296840310A8A0399511803910122920233
:1047A00003998918881D00BF01888905890D01803A
:1047B00021693E2915D900BF216949090291217C4F
:1047C000C906C90E002902D10299491E0291018829
:1047D000029A92020123DB031A4392B21143018031
:1047E0001BE02169002905D101880122D203114370
:1047F000018012E000BF216949080291217CC907AC
:10480000C90F002902D00299491C02910188029A1D
:104810009206120C1143018000BF00BF00BF00BF11
:1048200029680988804A1140084601210903484047
:104830004900484089000143802211432A681180C1
:1048400081E1B9002868465A0120C00330400028A1
:1048500071D000BFBA002968895A724A11400846CF
:1048600080210143BB002A68D15200BF2820784331
:104870002946FF3169314418207B002819D1286866
:104880004030008A2178C9004018801D0122920220
:1048900029688918405A8005800D069006980028DE
:1048A00063D0E288616928680390069B03F00CF9E5
:1048B0005BE0E078022806D1324621462846FDF723
:1048C000CDFF069051E000BF00BF2278920029681A
:1048D000895A534A8032114008460121C9030143D5
:1048E000C022114323789B002A68D15200BF00BF29
:1048F000217889002868405A01218903084000284E
:104900001AD028684030008A2178C9004018801CDD
:104910000122920229688918405A8005800D06906C
:104920000698002821D02289616928680390069B97
:1049300003F0CAF819E030E028684030008A217896
:10494000C9004018801D0122920229688918405A26
:104950008005800D06900698002806D0628961695E
:1049600028680390069B03F0AFF8E16906980818E1
:10497000E0616169069808186061A069002803D0A9
:1049800021690698814204D921782846FDF7D8FE8E
:1049900003E02146286802F07FFB80203040002899
:1049A0007AD02820784329462831441800BFBA001D
:1049B0002968895A1A4A114008460121C90301434E
:1049C000BB002A68D15200BFE07801287ED10020C8
:1049D000A061207B002876D040203040002839D0CC
:1049E00000BF6078002821D100BF296803912968A1
:1049F00040310A8A0399511803912178C900891C12
:104A000001239B02039AD218881800BF01888905E8
:104A1000890D018001885A011143018000BF18E00F
:104A20000F8F00008F0F00008FBF000060780128FB
:104A30000FD100BF286829684031098A08182178F9
:104A4000C900891C0122920282188B1800221A8048
:104A500000BF38E000BF28680390607800281CD1B0
:104A600000BF29680191296840310A8A01995118CB
:104A700001912178C900891D01239B02019AD21856
:104A8000881800BF01888905890D018001885A01B5
:104A90001143018000BF15E055E06078012811D175
:104AA00028684030018A0398081803902078C000D5
:104AB000801D01229202039989184018029000215A
:104AC0000298018000BF2178284600E002E0FDF74F
:104AD00026FE38E0FF200130304000282ED1286823
:104AE0004030008A2178C9004018801C01229202BF
:104AF00029688918405A8005800D0490A16904989E
:104B0000814204D9A1690498081AA06101E000203B
:104B1000A061A069002804D121782846FDF7FFFD97
:104B200011E06169049808186061E1690498081847
:104B3000E0612146286802F0AFFA04E032462146DF
:104B40002846FDF737FF2868403080880121C903D7
:104B50000840002800D05BE507B0F0BD30B587B055
:104B60000024002503F06AFB002834D07D23DB00FD
:104B700010221A49002003F077FB002801D107B06A
:104B800030BD7D23DB00182201A9102003F06CFB4F
:104B900000280AD0162101A8FDF7FAF80446684655
:104BA000458BAC4201D00020E9E76846408B0028E5
:104BB0000FD0182201A90A48FBF744FB1621084828
:104BC000FDF7E6F804460648C58AAC4203D000204B
:104BD000D5E70020D3E70120D1E700001402002030
:104BE000C801002010B500247D23DB0014220749F2
:104BF000282003F039FB0548048A1221FDF7C8F884
:104C0000A04201D0002010BD0120FCE7E0010020FF
:104C10007047000010B5012212030021022000F0AD
:104C2000EBF96420FDF7CAF80021022000F02EF90C
:104C3000124908800846008811490840002803D11D
:104C400010A004F057F802E015A004F053F8072272
:104C50001F21022000F0D0F910221321022000F0C1
:104C6000CBF900221F21022000F0C6F90121022009
:104C700000F00CF90149088010BD00000800002078
:104C8000FF8F000052544C38323031462052657349
:104C900065742053756363656564210D0A00000027
:104CA00052544C3832303146205265736574204678
:104CB00061696C6564210D0A0000000010B50022D6
:104CC000012189022148FDF796F90120FDF776F8C8
:104CD000012291021D48FDF78EF9002201210920D1
:104CE000C006FDF788F9002220210920C006FDF743
:104CF00082F9002202210920C006FDF77CF900227A
:104D000004210920C006FDF776F97D20C000FDF7DB
:104D100055F8012211460920C006FDF76CF9012261
:104D200020210920C006FDF766F901220221092091
:104D3000C006FDF760F9012204210920C006FDF735
:104D40005AF9C820FDF73AF810BD000000040048E9
:104D50007047000000B587B0142102A8FBF7A4FB40
:104D600000BF1A4840690121890408431749486176
:104D700008464069012189040840019000BF00BF36
:104D80004811029011200390012004900320059007
:104D900002A90F48FDF728F8012251030C48FDF73E
:104DA0002AF9012080030290012003900020049042
:104DB0000320059002A90648FDF716F800220121FC
:104DC00089030348FDF717F907B000BD0010024042
:104DD0000004004870B50025002423E0002C01DD0C
:104DE0006806050E0022012189031048FDF703F92A
:104DF000FFF7AEFF012291030C48FDF7FCF8FFF727
:104E0000A7FF012149030948FDF7ECF8002801D06C
:104E1000012005430022012189030448FDF7EBF836
:104E2000601CC4B2012CD9DB284670BD00040048C8
:104E300070B50025002423E0002C01DD6806050E76
:104E40000022012189031048FDF7D5F8FFF780FF04
:104E5000012291030C48FDF7CEF8012149030A48CD
:104E6000FDF7C0F8002801D001200543FFF770FFCF
:104E70000022012189030448FDF7BDF8601CC4B27B
:104E8000082CD9DB284670BD00040048F8B505465B
:104E90000E466807000EF106C90E0843074600F0EB
:104EA0003BF8FF2000F07CF8FF2000F079F8FF20AD
:104EB00000F076F8FF2000F073F8012000F044F8CD
:104EC000022000F041F8002000F03EF8384600F0E3
:104ED00067F800F00BF8FFF77DFFFFF7A9FF044626
:104EE0002402FFF7A5FF04432046F8BD00B585B0B6
:104EF00014216846FBF7D8FA0120400300900020F7
:104F000001900120029069460248FCF76DFF05B050
:104F100000BD00000004004800B585B014216846BB
:104F2000FBF7C2FA0120400300900120019000200D
:104F300002900320039069460248FCF755FF05B034
:104F400000BD00000004004870B50546002422E0C2
:104F50000022012189031148FDF74DF8022020416C
:104F600028400121091B08410246012149030B4841
:104F7000FDF741F8FFF7ECFE012291030748FDF72A
:104F80003AF8FFF7E5FE0022012189030348FDF707
:104F900032F8601CC4B2022CDADB70BD0004004899
:104FA00070B50546002422E0002201218903114842
:104FB000FDF721F88020204128400721091B0841E6
:104FC0000246012149030B48FDF715F8FFF7C0FE23
:104FD000012291030748FDF70EF8FFF7B9FE002202
:104FE000012189030348FDF706F8601CC4B2082CB0
:104FF000DADB70BD00040048F8B505460E461446DD
:105000006807000EF106C90E08430746FFF784FF44
:10501000FF20FFF7C5FFFF20FFF7C2FFFF20FFF7CC
:10502000BFFFFF20FFF7BCFF0120FFF78DFF01202E
:10503000FFF78AFF0020FFF787FF3846FFF7B0FF32
:105040000220FFF781FFFF21090221400812FFF72C
:10505000A7FFE0B2FFF7A4FF012251030148FCF7CC
:10506000CAFFF8BD000400487047000010B5FDF706
:105070009DFA02F012FF06480068401C04490860CF
:105080000A2803D30020086002F0FCFE10BD0000D7
:105090002400002010B500F001F810BD00B599B053
:1050A00034210CA8FBF700FA0020089009900A9020
:1050B0000B901C2101A8FBF7F7F923200C9001208D
:1050C0000D900F9014901020109002201590C103A5
:1050D0001691C1041791002118910CA8FEF736FC17
:1050E000002801D0FCF732FE07200890022009902A
:1050F00000200A900B90012108A8FEF7FDFA002875
:1051000001D0FCF723FE074801900020059007908E
:1051100001A8FEF71FFA002801D0FCF717FE19B00E
:1051200000BD000020000200704700000120C043C5
:1051300001218907086103480068401C0149086093
:10514000704700002800002010B50024172100201F
:10515000FFF79CFE04460120C0032040C4132046F4
:1051600010BD10B5002412210020FFF78FFE044669
:105170000120C0032040C413204610BD10B50024F8
:1051800017210020FFF782FE0446E0202040441152
:10519000204610BD10B500220121C9030548FCF7C7
:1051A0002AFF0120FCF70AFE0122D1030148FCF787
:1051B00022FF10BD0004004810B504460B480078DB
:1051C000A04212D0002C06D0002280210920C00667
:1051D000FCF711FF05E0012280210920C006FCF741
:1051E0000AFF02480470FFF7D5FF10BD2000002021
:1051F00010B504460B480078A04212D0002C06D00F
:10520000002240210920C006FCF7F5FE05E001223E
:1052100040210920C006FCF7EEFE02480470FFF7AB
:10522000B9FF10BD1F000020F8B504460D4605204B
:10523000C0012018866B0520C0012018076C0520CE
:10524000C0012018806B00282AD014206843214612
:1052500014314018806800281CD028226A433B463D
:105260002833D218116914226A4323461433D21802
:105270009068FBF71BF900290CD1142068432246E3
:1052800014328018816000231A462946204600F017
:10529000DEFF03E000218520800081510020F8BD61
:1052A0000220FCE770B504460E460520C001201818
:1052B000856B3146204600F02BFE83218900485142
:1052C0000520C0012018806B00280DD081218900A5
:1052D00048590521C9016118C96BCA688321890031
:1052E00069189047002070BD0220FCE770B50446A5
:1052F0000E4600258121204600F0F6FC0021E162E7
:105300000121204600F0F0FC0021FF206D3001510A
:105310008221204600F0E8FC002121640520C00124
:105320002018806B002810D00521C9016118C96BB5
:10533000486880470521C9016118886B01F066FA49
:1053400000200521C90161188863284670BD00004E
:1053500070B505460520C0012818846B0520C001E2
:105360002818C06B002813D001204002005DFF28E0
:105370000ED008490A5D491E085D0521C90169185A
:10538000C96B8B6821469847FF21012040020155D7
:10539000002070BD0102000001460A20088001487B
:1053A00070470000A8000020014643200880014803
:1053B000704700003001002001464320088001486A
:1053C00070470000EC00002001464320088001489F
:1053D0007047000074010020F8B504460F4600260F
:1053E000207C002812D101235B0202228121204669
:1053F00000F00AFE0121E1624B020222204600F089
:1054000003FE0121FF206D30015110E040230222F4
:105410008121204600F0F8FD0121E16240230222B3
:10542000204600F0F1FD0121FF206D3001510823DD
:1054300003228221204600F0E7FD0121216487201C
:10544000800001F0E5F90521C90161188863052094
:10545000C0012018806B002801D1012623E005201F
:10546000C0012018856B0521C9016118C96B086846
:1054700080470021852080004151001D4151207C42
:10548000002808D1812080004259031F01212046B5
:1054900000F0D2FD07E08120800042594023012125
:1054A000204600F0C9FD3046F8BD70B50446052021
:1054B000C0012018856B0520C0012018806B0028D2
:1054C00015D0207C002808D1812080004259031F7C
:1054D0000121204600F0B0FD07E081208000425904
:1054E00040230121204600F0A7FD002070BD0220CE
:1054F000FCE702460220002904D00523DB01D31873
:10550000D9630020704702460520C0011018836B44
:1055100081208000C1500020704710B5034605204F
:10552000C0011818846B4120C000015121200001E6
:105530000251002010BDFEB505460C460520C001F5
:105540002818866B002101910091002720786021A6
:10555000084000282FD020286DD1E088002820D0D6
:1055600020788021084000280ED0E288607805214C
:10557000C9016918C96B8B6831469847E288314682
:10558000284600F000F915E06178012040028155BD
:10559000A179401C8155E2883146284600F0CFF8B9
:1055A00008E060780521C9016918C96B00228B6881
:1055B0002146984745E06078002804D00A2814D096
:1055C0000B2830D123E00520C0012818007F0328D4
:1055D00005D102226946284600F0D5F804E02146AC
:1055E000284600F0A0F8022723E00520C001281873
:1055F000007F032805D1012201A9284600F0C3F845
:1056000004E02146284600F08EF8022711E005202C
:10561000C0012818007F032804D02146284600F046
:1056200082F8022705E02146284600F07CF8022790
:1056300000BF00BF05E02146284600F074F80227AD
:1056400000BF00BF3846FEBD70B505460520C0014D
:105650002818846B0520C0012818806B002818D0FA
:10566000852080000059002811D10121852080006B
:105670000151001F01592963005B83B24120C00022
:1056800002598121284600F0E2FD002070BD012072
:10569000FCE70220FAE770B504460D460520C0017C
:1056A0002018406B2946426820469047002070BD74
:1056B00070B504460D460520C0012018007F012862
:1056C00004D0022803D003280ED101E000BF00BFA0
:1056D0006888012807D100200521C90161184862A6
:1056E000204600F063F804E02946204600F01BF84D
:1056F00000BF00BF70BD70B506460C4615462B4670
:1057000022460021304600F097FC002070BD70B5A5
:1057100006460C4615462B4622460021304600F030
:1057200096FD002070BD70B504460D4680212046D0
:1057300000F059FD0021204600F055FD70BD70B508
:1057400004460E46154603200521C901611848612B
:10575000FF205D300551001D05512B4632460021CA
:10576000204600F069FC002070BD10B504460520FD
:10577000C1016118486100231A461946204600F00D
:105780005BFC002010BD70B504460E461546022095
:105790000521C90161184861E56125622B46324641
:1057A0000021204600F053FD002070BD10B50446D6
:1057B00004200521C9016118486100231A461946D1
:1057C000204600F044FD002010BD000070B50546E5
:1057D0000C46002D05D12246054906A000F00FFA1F
:1057E00004E02246024903A000F009FA004870BD17
:1057F000D405002043444320436F6E666967000070
:10580000024612200880014870470000480000202E
:1058100070B505460C46002D05D12246054906A067
:1058200000F0EDF904E02246024903A000F0E7F998
:10583000004870BDD405002043444320496E746580
:10584000726661636500000002460420088001481A
:10585000704700005C00002070B505460C462246EB
:10586000024903A000F0CBF9004870BDD405002028
:1058700053544D6963726F656C656374726F6E69C2
:105880006373000070B505460C46002D05D1224615
:10589000054906A000F0B3F904E02246024903A03E
:1058A00000F0ADF9004870BDD405002053544D33CD
:1058B00032205669727475616C20436F6D506F723F
:1058C0007400000070B505460C461A202080FCF7D5
:1058D00047FA014870BD00006000002070B5044622
:1058E0000D46E888012804D029462046FFF71BFF13
:1058F00020E00520C0012018007F012804D00228E4
:1059000003D0032810D109E000BF0020A0600122CD
:10591000214608312046FFF736FF0AE00122211D0B
:105920002046FFF730FF04E029462046FFF7FBFE44
:1059300000BF00BF70BDF8B504460E4600200090C1
:105940000027002570880012030002F01BF908F2FE
:10595000050F28F2F2C9DCF2207C0521C90161188B
:10596000096B0A68694690470746E9E0207C0028F1
:105970000AD10520C0012018406B816A684688471B
:1059800007460220787009E00520C0012018406B0E
:10599000C16A68468847074602207870D0E0B07830
:1059A000030002F0EFF806041C344C647C940520DC
:1059B000C0012018006B4068002809D0207C052118
:1059C000C9016118096B4A6869469047074605E0B6
:1059D00031462046FFF7A7FE681CC5B27EE00520D1
:1059E000C0012018006B8068002809D0207C0521A8
:1059F000C9016118096B8A6869469047074605E046
:105A000031462046FFF78FFE681CC5B266E00520D0
:105A1000C0012018006BC068002809D0207C052137
:105A2000C9016118096BCA6869469047074605E0D5
:105A300031462046FFF777FE681CC5B24EE00520D0
:105A4000C0012018006B0069002809D0207C0521C6
:105A5000C9016118096B0A6969469047074605E064
:105A600031462046FFF75FFE681CC5B236E00520D0
:105A7000C0012018006B4069002809D0207C052156
:105A8000C9016118096B4A6969469047074605E0F4
:105A900031462046FFF747FE681CC5B21EE00520D0
:105AA000C0012018006B8069002809D0207C0521E6
:105AB000C9016118096B8A6969469047074605E084
:105AC00031462046FFF72FFE681CC5B206E031467E
:105AD0002046FFF728FE681CC5B200BF00BF2FE0BC
